{
  "_format": "hh3-artifact-1",
  "contractName": "TerraChainSimple",
  "sourceName": "contracts/TerraChainSimple.sol",
  "abi": [
    {
      "inputs": [],
      "stateMutability": "nonpayable",
      "type": "constructor"
    },
    {
      "inputs": [],
      "name": "AccessControlBadConfirmation",
      "type": "error"
    },
    {
      "inputs": [
        {
          "internalType": "address",
          "name": "account",
          "type": "address"
        },
        {
          "internalType": "bytes32",
          "name": "neededRole",
          "type": "bytes32"
        }
      ],
      "name": "AccessControlUnauthorizedAccount",
      "type": "error"
    },
    {
      "inputs": [
        {
          "internalType": "address",
          "name": "sender",
          "type": "address"
        },
        {
          "internalType": "uint256",
          "name": "tokenId",
          "type": "uint256"
        },
        {
          "internalType": "address",
          "name": "owner",
          "type": "address"
        }
      ],
      "name": "ERC721IncorrectOwner",
      "type": "error"
    },
    {
      "inputs": [
        {
          "internalType": "address",
          "name": "operator",
          "type": "address"
        },
        {
          "internalType": "uint256",
          "name": "tokenId",
          "type": "uint256"
        }
      ],
      "name": "ERC721InsufficientApproval",
      "type": "error"
    },
    {
      "inputs": [
        {
          "internalType": "address",
          "name": "approver",
          "type": "address"
        }
      ],
      "name": "ERC721InvalidApprover",
      "type": "error"
    },
    {
      "inputs": [
        {
          "internalType": "address",
          "name": "operator",
          "type": "address"
        }
      ],
      "name": "ERC721InvalidOperator",
      "type": "error"
    },
    {
      "inputs": [
        {
          "internalType": "address",
          "name": "owner",
          "type": "address"
        }
      ],
      "name": "ERC721InvalidOwner",
      "type": "error"
    },
    {
      "inputs": [
        {
          "internalType": "address",
          "name": "receiver",
          "type": "address"
        }
      ],
      "name": "ERC721InvalidReceiver",
      "type": "error"
    },
    {
      "inputs": [
        {
          "internalType": "address",
          "name": "sender",
          "type": "address"
        }
      ],
      "name": "ERC721InvalidSender",
      "type": "error"
    },
    {
      "inputs": [
        {
          "internalType": "uint256",
          "name": "tokenId",
          "type": "uint256"
        }
      ],
      "name": "ERC721NonexistentToken",
      "type": "error"
    },
    {
      "anonymous": false,
      "inputs": [
        {
          "indexed": true,
          "internalType": "address",
          "name": "owner",
          "type": "address"
        },
        {
          "indexed": true,
          "internalType": "address",
          "name": "approved",
          "type": "address"
        },
        {
          "indexed": true,
          "internalType": "uint256",
          "name": "tokenId",
          "type": "uint256"
        }
      ],
      "name": "Approval",
      "type": "event"
    },
    {
      "anonymous": false,
      "inputs": [
        {
          "indexed": true,
          "internalType": "address",
          "name": "owner",
          "type": "address"
        },
        {
          "indexed": true,
          "internalType": "address",
          "name": "operator",
          "type": "address"
        },
        {
          "indexed": false,
          "internalType": "bool",
          "name": "approved",
          "type": "bool"
        }
      ],
      "name": "ApprovalForAll",
      "type": "event"
    },
    {
      "anonymous": false,
      "inputs": [
        {
          "indexed": true,
          "internalType": "uint256",
          "name": "landId",
          "type": "uint256"
        },
        {
          "indexed": true,
          "internalType": "address",
          "name": "owner",
          "type": "address"
        },
        {
          "indexed": false,
          "internalType": "string",
          "name": "metadataURI",
          "type": "string"
        },
        {
          "indexed": false,
          "internalType": "uint256",
          "name": "price",
          "type": "uint256"
        }
      ],
      "name": "LandRegistered",
      "type": "event"
    },
    {
      "anonymous": false,
      "inputs": [
        {
          "indexed": true,
          "internalType": "uint256",
          "name": "landId",
          "type": "uint256"
        },
        {
          "indexed": false,
          "internalType": "uint256",
          "name": "riskScore",
          "type": "uint256"
        },
        {
          "indexed": false,
          "internalType": "enum TerraChainSimple.RiskLevel",
          "name": "riskLevel",
          "type": "uint8"
        },
        {
          "indexed": false,
          "internalType": "enum TerraChainSimple.TransferStatus",
          "name": "status",
          "type": "uint8"
        }
      ],
      "name": "RiskValidated",
      "type": "event"
    },
    {
      "anonymous": false,
      "inputs": [
        {
          "indexed": true,
          "internalType": "bytes32",
          "name": "role",
          "type": "bytes32"
        },
        {
          "indexed": true,
          "internalType": "bytes32",
          "name": "previousAdminRole",
          "type": "bytes32"
        },
        {
          "indexed": true,
          "internalType": "bytes32",
          "name": "newAdminRole",
          "type": "bytes32"
        }
      ],
      "name": "RoleAdminChanged",
      "type": "event"
    },
    {
      "anonymous": false,
      "inputs": [
        {
          "indexed": true,
          "internalType": "bytes32",
          "name": "role",
          "type": "bytes32"
        },
        {
          "indexed": true,
          "internalType": "address",
          "name": "account",
          "type": "address"
        },
        {
          "indexed": true,
          "internalType": "address",
          "name": "sender",
          "type": "address"
        }
      ],
      "name": "RoleGranted",
      "type": "event"
    },
    {
      "anonymous": false,
      "inputs": [
        {
          "indexed": true,
          "internalType": "bytes32",
          "name": "role",
          "type": "bytes32"
        },
        {
          "indexed": true,
          "internalType": "address",
          "name": "account",
          "type": "address"
        },
        {
          "indexed": true,
          "internalType": "address",
          "name": "sender",
          "type": "address"
        }
      ],
      "name": "RoleRevoked",
      "type": "event"
    },
    {
      "anonymous": false,
      "inputs": [
        {
          "indexed": true,
          "internalType": "address",
          "name": "from",
          "type": "address"
        },
        {
          "indexed": true,
          "internalType": "address",
          "name": "to",
          "type": "address"
        },
        {
          "indexed": true,
          "internalType": "uint256",
          "name": "tokenId",
          "type": "uint256"
        }
      ],
      "name": "Transfer",
      "type": "event"
    },
    {
      "anonymous": false,
      "inputs": [
        {
          "indexed": true,
          "internalType": "uint256",
          "name": "landId",
          "type": "uint256"
        },
        {
          "indexed": true,
          "internalType": "address",
          "name": "approver",
          "type": "address"
        }
      ],
      "name": "TransferApproved",
      "type": "event"
    },
    {
      "anonymous": false,
      "inputs": [
        {
          "indexed": true,
          "internalType": "uint256",
          "name": "landId",
          "type": "uint256"
        },
        {
          "indexed": true,
          "internalType": "address",
          "name": "oldOwner",
          "type": "address"
        },
        {
          "indexed": true,
          "internalType": "address",
          "name": "newOwner",
          "type": "address"
        }
      ],
      "name": "TransferExecuted",
      "type": "event"
    },
    {
      "anonymous": false,
      "inputs": [
        {
          "indexed": true,
          "internalType": "uint256",
          "name": "landId",
          "type": "uint256"
        }
      ],
      "name": "TransferFrozen",
      "type": "event"
    },
    {
      "anonymous": false,
      "inputs": [
        {
          "indexed": true,
          "internalType": "uint256",
          "name": "landId",
          "type": "uint256"
        },
        {
          "indexed": true,
          "internalType": "address",
          "name": "from",
          "type": "address"
        },
        {
          "indexed": true,
          "internalType": "address",
          "name": "to",
          "type": "address"
        }
      ],
      "name": "TransferRequested",
      "type": "event"
    },
    {
      "inputs": [],
      "name": "DEFAULT_ADMIN_ROLE",
      "outputs": [
        {
          "internalType": "bytes32",
          "name": "",
          "type": "bytes32"
        }
      ],
      "stateMutability": "view",
      "type": "function"
    },
    {
      "inputs": [],
      "name": "VALIDATOR_ROLE",
      "outputs": [
        {
          "internalType": "bytes32",
          "name": "",
          "type": "bytes32"
        }
      ],
      "stateMutability": "view",
      "type": "function"
    },
    {
      "inputs": [
        {
          "internalType": "address",
          "name": "to",
          "type": "address"
        },
        {
          "internalType": "uint256",
          "name": "tokenId",
          "type": "uint256"
        }
      ],
      "name": "approve",
      "outputs": [],
      "stateMutability": "nonpayable",
      "type": "function"
    },
    {
      "inputs": [
        {
          "internalType": "uint256",
          "name": "_landId",
          "type": "uint256"
        }
      ],
      "name": "approvePendingTransfer",
      "outputs": [],
      "stateMutability": "nonpayable",
      "type": "function"
    },
    {
      "inputs": [
        {
          "internalType": "address",
          "name": "owner",
          "type": "address"
        }
      ],
      "name": "balanceOf",
      "outputs": [
        {
          "internalType": "uint256",
          "name": "",
          "type": "uint256"
        }
      ],
      "stateMutability": "view",
      "type": "function"
    },
    {
      "inputs": [
        {
          "internalType": "uint256",
          "name": "_landId",
          "type": "uint256"
        }
      ],
      "name": "executeApprovedTransfer",
      "outputs": [],
      "stateMutability": "nonpayable",
      "type": "function"
    },
    {
      "inputs": [
        {
          "internalType": "uint256",
          "name": "_landId",
          "type": "uint256"
        }
      ],
      "name": "freezeTransfer",
      "outputs": [],
      "stateMutability": "nonpayable",
      "type": "function"
    },
    {
      "inputs": [
        {
          "internalType": "uint256",
          "name": "tokenId",
          "type": "uint256"
        }
      ],
      "name": "getApproved",
      "outputs": [
        {
          "internalType": "address",
          "name": "",
          "type": "address"
        }
      ],
      "stateMutability": "view",
      "type": "function"
    },
    {
      "inputs": [
        {
          "internalType": "uint256",
          "name": "_landId",
          "type": "uint256"
        }
      ],
      "name": "getLand",
      "outputs": [
        {
          "internalType": "uint256",
          "name": "landId",
          "type": "uint256"
        },
        {
          "internalType": "address",
          "name": "owner",
          "type": "address"
        },
        {
          "internalType": "string",
          "name": "metadataURI",
          "type": "string"
        },
        {
          "internalType": "uint256",
          "name": "price",
          "type": "uint256"
        },
        {
          "internalType": "uint256",
          "name": "lastTransferTime",
          "type": "uint256"
        },
        {
          "internalType": "bool",
          "name": "exists",
          "type": "bool"
        }
      ],
      "stateMutability": "view",
      "type": "function"
    },
    {
      "inputs": [
        {
          "internalType": "bytes32",
          "name": "role",
          "type": "bytes32"
        }
      ],
      "name": "getRoleAdmin",
      "outputs": [
        {
          "internalType": "bytes32",
          "name": "",
          "type": "bytes32"
        }
      ],
      "stateMutability": "view",
      "type": "function"
    },
    {
      "inputs": [
        {
          "internalType": "uint256",
          "name": "_landId",
          "type": "uint256"
        }
      ],
      "name": "getTransferRequest",
      "outputs": [
        {
          "internalType": "address",
          "name": "from",
          "type": "address"
        },
        {
          "internalType": "address",
          "name": "to",
          "type": "address"
        },
        {
          "internalType": "uint256",
          "name": "landId",
          "type": "uint256"
        },
        {
          "internalType": "uint256",
          "name": "riskScore",
          "type": "uint256"
        },
        {
          "internalType": "enum TerraChainSimple.RiskLevel",
          "name": "riskLevel",
          "type": "uint8"
        },
        {
          "internalType": "enum TerraChainSimple.TransferStatus",
          "name": "status",
          "type": "uint8"
        }
      ],
      "stateMutability": "view",
      "type": "function"
    },
    {
      "inputs": [
        {
          "internalType": "bytes32",
          "name": "role",
          "type": "bytes32"
        },
        {
          "internalType": "address",
          "name": "account",
          "type": "address"
        }
      ],
      "name": "grantRole",
      "outputs": [],
      "stateMutability": "nonpayable",
      "type": "function"
    },
    {
      "inputs": [
        {
          "internalType": "bytes32",
          "name": "role",
          "type": "bytes32"
        },
        {
          "internalType": "address",
          "name": "account",
          "type": "address"
        }
      ],
      "name": "hasRole",
      "outputs": [
        {
          "internalType": "bool",
          "name": "",
          "type": "bool"
        }
      ],
      "stateMutability": "view",
      "type": "function"
    },
    {
      "inputs": [
        {
          "internalType": "address",
          "name": "owner",
          "type": "address"
        },
        {
          "internalType": "address",
          "name": "operator",
          "type": "address"
        }
      ],
      "name": "isApprovedForAll",
      "outputs": [
        {
          "internalType": "bool",
          "name": "",
          "type": "bool"
        }
      ],
      "stateMutability": "view",
      "type": "function"
    },
    {
      "inputs": [
        {
          "internalType": "uint256",
          "name": "",
          "type": "uint256"
        }
      ],
      "name": "lands",
      "outputs": [
        {
          "internalType": "uint256",
          "name": "landId",
          "type": "uint256"
        },
        {
          "internalType": "string",
          "name": "metadataURI",
          "type": "string"
        },
        {
          "internalType": "uint256",
          "name": "price",
          "type": "uint256"
        },
        {
          "internalType": "uint256",
          "name": "lastTransferTime",
          "type": "uint256"
        },
        {
          "internalType": "bool",
          "name": "exists",
          "type": "bool"
        }
      ],
      "stateMutability": "view",
      "type": "function"
    },
    {
      "inputs": [],
      "name": "name",
      "outputs": [
        {
          "internalType": "string",
          "name": "",
          "type": "string"
        }
      ],
      "stateMutability": "view",
      "type": "function"
    },
    {
      "inputs": [],
      "name": "nextLandId",
      "outputs": [
        {
          "internalType": "uint256",
          "name": "",
          "type": "uint256"
        }
      ],
      "stateMutability": "view",
      "type": "function"
    },
    {
      "inputs": [
        {
          "internalType": "uint256",
          "name": "tokenId",
          "type": "uint256"
        }
      ],
      "name": "ownerOf",
      "outputs": [
        {
          "internalType": "address",
          "name": "",
          "type": "address"
        }
      ],
      "stateMutability": "view",
      "type": "function"
    },
    {
      "inputs": [
        {
          "internalType": "address",
          "name": "_owner",
          "type": "address"
        },
        {
          "internalType": "string",
          "name": "_metadataURI",
          "type": "string"
        },
        {
          "internalType": "uint256",
          "name": "_price",
          "type": "uint256"
        }
      ],
      "name": "registerLand",
      "outputs": [],
      "stateMutability": "nonpayable",
      "type": "function"
    },
    {
      "inputs": [
        {
          "internalType": "bytes32",
          "name": "role",
          "type": "bytes32"
        },
        {
          "internalType": "address",
          "name": "callerConfirmation",
          "type": "address"
        }
      ],
      "name": "renounceRole",
      "outputs": [],
      "stateMutability": "nonpayable",
      "type": "function"
    },
    {
      "inputs": [
        {
          "internalType": "uint256",
          "name": "_landId",
          "type": "uint256"
        },
        {
          "internalType": "address",
          "name": "_to",
          "type": "address"
        }
      ],
      "name": "requestTransfer",
      "outputs": [],
      "stateMutability": "nonpayable",
      "type": "function"
    },
    {
      "inputs": [
        {
          "internalType": "bytes32",
          "name": "role",
          "type": "bytes32"
        },
        {
          "internalType": "address",
          "name": "account",
          "type": "address"
        }
      ],
      "name": "revokeRole",
      "outputs": [],
      "stateMutability": "nonpayable",
      "type": "function"
    },
    {
      "inputs": [
        {
          "internalType": "address",
          "name": "from",
          "type": "address"
        },
        {
          "internalType": "address",
          "name": "to",
          "type": "address"
        },
        {
          "internalType": "uint256",
          "name": "tokenId",
          "type": "uint256"
        }
      ],
      "name": "safeTransferFrom",
      "outputs": [],
      "stateMutability": "nonpayable",
      "type": "function"
    },
    {
      "inputs": [
        {
          "internalType": "address",
          "name": "from",
          "type": "address"
        },
        {
          "internalType": "address",
          "name": "to",
          "type": "address"
        },
        {
          "internalType": "uint256",
          "name": "tokenId",
          "type": "uint256"
        },
        {
          "internalType": "bytes",
          "name": "data",
          "type": "bytes"
        }
      ],
      "name": "safeTransferFrom",
      "outputs": [],
      "stateMutability": "nonpayable",
      "type": "function"
    },
    {
      "inputs": [
        {
          "internalType": "address",
          "name": "operator",
          "type": "address"
        },
        {
          "internalType": "bool",
          "name": "approved",
          "type": "bool"
        }
      ],
      "name": "setApprovalForAll",
      "outputs": [],
      "stateMutability": "nonpayable",
      "type": "function"
    },
    {
      "inputs": [
        {
          "internalType": "bytes4",
          "name": "interfaceId",
          "type": "bytes4"
        }
      ],
      "name": "supportsInterface",
      "outputs": [
        {
          "internalType": "bool",
          "name": "",
          "type": "bool"
        }
      ],
      "stateMutability": "view",
      "type": "function"
    },
    {
      "inputs": [],
      "name": "symbol",
      "outputs": [
        {
          "internalType": "string",
          "name": "",
          "type": "string"
        }
      ],
      "stateMutability": "view",
      "type": "function"
    },
    {
      "inputs": [
        {
          "internalType": "uint256",
          "name": "tokenId",
          "type": "uint256"
        }
      ],
      "name": "tokenURI",
      "outputs": [
        {
          "internalType": "string",
          "name": "",
          "type": "string"
        }
      ],
      "stateMutability": "view",
      "type": "function"
    },
    {
      "inputs": [
        {
          "internalType": "address",
          "name": "from",
          "type": "address"
        },
        {
          "internalType": "address",
          "name": "to",
          "type": "address"
        },
        {
          "internalType": "uint256",
          "name": "tokenId",
          "type": "uint256"
        }
      ],
      "name": "transferFrom",
      "outputs": [],
      "stateMutability": "nonpayable",
      "type": "function"
    },
    {
      "inputs": [
        {
          "internalType": "uint256",
          "name": "",
          "type": "uint256"
        }
      ],
      "name": "transferRequests",
      "outputs": [
        {
          "internalType": "address",
          "name": "from",
          "type": "address"
        },
        {
          "internalType": "address",
          "name": "to",
          "type": "address"
        },
        {
          "internalType": "uint256",
          "name": "landId",
          "type": "uint256"
        },
        {
          "internalType": "uint256",
          "name": "riskScore",
          "type": "uint256"
        },
        {
          "internalType": "enum TerraChainSimple.RiskLevel",
          "name": "riskLevel",
          "type": "uint8"
        },
        {
          "internalType": "enum TerraChainSimple.TransferStatus",
          "name": "status",
          "type": "uint8"
        }
      ],
      "stateMutability": "view",
      "type": "function"
    },
    {
      "inputs": [
        {
          "internalType": "uint256",
          "name": "_landId",
          "type": "uint256"
        },
        {
          "internalType": "uint256",
          "name": "_riskScore",
          "type": "uint256"
        }
      ],
      "name": "validateRisk",
      "outputs": [],
      "stateMutability": "nonpayable",
      "type": "function"
    }
  ],
  "bytecode": "0x60806040526001600755348015610014575f5ffd5b506040518060400160405280600f81526020017f5465727261436861696e204c616e6400000000000000000000000000000000008152506040518060400160405280600681526020017f54434c414e440000000000000000000000000000000000000000000000000000815250815f908161008f9190610489565b50806001908161009f9190610489565b5050506100b45f5f1b336100eb60201b60201c565b506100e57f21702c8af46127c7fa207f89d0b0a8441bb32959a0ac7df790e9ab1a25c98926336100eb60201b60201c565b50610558565b5f6100fc83836101e160201b60201c565b6101d757600160065f8581526020019081526020015f205f015f8473ffffffffffffffffffffffffffffffffffffffff1673ffffffffffffffffffffffffffffffffffffffff1681526020019081526020015f205f6101000a81548160ff02191690831515021790555061017461024560201b60201c565b73ffffffffffffffffffffffffffffffffffffffff168273ffffffffffffffffffffffffffffffffffffffff16847f2f8788117e7eff1d82e926ec794901d17c78024a50270940304540a733656f0d60405160405180910390a4600190506101db565b5f90505b92915050565b5f60065f8481526020019081526020015f205f015f8373ffffffffffffffffffffffffffffffffffffffff1673ffffffffffffffffffffffffffffffffffffffff1681526020019081526020015f205f9054906101000a900460ff16905092915050565b5f33905090565b5f81519050919050565b7f4e487b71000000000000000000000000000000000000000000000000000000005f52604160045260245ffd5b7f4e487b71000000000000000000000000000000000000000000000000000000005f52602260045260245ffd5b5f60028204905060018216806102c757607f821691505b6020821081036102da576102d9610283565b5b50919050565b5f819050815f5260205f209050919050565b5f6020601f8301049050919050565b5f82821b905092915050565b5f6008830261033c7fffffffffffffffffffffffffffffffffffffffffffffffffffffffffffffffff82610301565b6103468683610301565b95508019841693508086168417925050509392505050565b5f819050919050565b5f819050919050565b5f61038a6103856103808461035e565b610367565b61035e565b9050919050565b5f819050919050565b6103a383610370565b6103b76103af82610391565b84845461030d565b825550505050565b5f5f905090565b6103ce6103bf565b6103d981848461039a565b505050565b5b818110156103fc576103f15f826103c6565b6001810190506103df565b5050565b601f82111561044157610412816102e0565b61041b846102f2565b8101602085101561042a578190505b61043e610436856102f2565b8301826103de565b50505b505050565b5f82821c905092915050565b5f6104615f1984600802610446565b1980831691505092915050565b5f6104798383610452565b9150826002028217905092915050565b6104928261024c565b67ffffffffffffffff8111156104ab576104aa610256565b5b6104b582546102b0565b6104c0828285610400565b5f60209050601f8311600181146104f1575f84156104df578287015190505b6104e9858261046e565b865550610550565b601f1984166104ff866102e0565b5f5b8281101561052657848901518255600182019150602085019450602081019050610501565b86831015610543578489015161053f601f891682610452565b8355505b6001600288020188555050505b505050505050565b6144b4806105655f395ff3fe608060405234801561000f575f5ffd5b50600436106101e3575f3560e01c806370a082311161010d578063b88d4fde116100a0578063d547741f1161006f578063d547741f146105a3578063e261f1e5146105bf578063e985e9c5146105f3578063f02dd53f14610623576101e3565b8063b88d4fde1461051d578063c49baebe14610539578063c87b56dd14610557578063d300098714610587576101e3565b806399807e4c116100dc57806399807e4c14610490578063a217fddf146104c5578063a22cb465146104e3578063ad9a3eb0146104ff576101e3565b806370a08231146103f65780638805e9be1461042657806391d148541461044257806395d89b4114610472576101e3565b80632f2ff15d1161018557806342842e0e1161015457806342842e0e146103725780634bde01f71461038e57806353771281146103aa5780636352211e146103c6576101e3565b80632f2ff15d1461030257806336568abe1461031e5780633c69403b1461033a5780634034423214610356576101e3565b8063081812fc116101c1578063081812fc1461026a578063095ea7b31461029a57806323b872dd146102b6578063248a9ca3146102d2576101e3565b806301ffc9a7146101e757806303486c401461021757806306fdde031461024c575b5f5ffd5b61020160048036038101906101fc919061315a565b610658565b60405161020e919061319f565b60405180910390f35b610231600480360381019061022c91906131eb565b610669565b6040516102439695949392919061331d565b60405180910390f35b6102546106f8565b60405161026191906133ec565b60405180910390f35b610284600480360381019061027f91906131eb565b610787565b604051610291919061340c565b60405180910390f35b6102b460048036038101906102af919061344f565b6107a2565b005b6102d060048036038101906102cb919061348d565b6107b8565b005b6102ec60048036038101906102e79190613510565b6108b7565b6040516102f9919061354a565b60405180910390f35b61031c60048036038101906103179190613563565b6108d4565b005b61033860048036038101906103339190613563565b6108f6565b005b610354600480360381019061034f91906131eb565b610971565b005b610370600480360381019061036b91906135a1565b610bc1565b005b61038c6004803603810190610387919061348d565b61103e565b005b6103a860048036038101906103a3919061370b565b61105d565b005b6103c460048036038101906103bf91906131eb565b6111e5565b005b6103e060048036038101906103db91906131eb565b6113b4565b6040516103ed919061340c565b60405180910390f35b610410600480360381019061040b9190613777565b6113c5565b60405161041d91906137a2565b60405180910390f35b610440600480360381019061043b91906137bb565b61147b565b005b61045c60048036038101906104579190613563565b6116d9565b604051610469919061319f565b60405180910390f35b61047a61173d565b60405161048791906133ec565b60405180910390f35b6104aa60048036038101906104a591906131eb565b6117cd565b6040516104bc9695949392919061331d565b60405180910390f35b6104cd611957565b6040516104da919061354a565b60405180910390f35b6104fd60048036038101906104f89190613823565b61195d565b005b610507611973565b60405161051491906137a2565b60405180910390f35b610537600480360381019061053291906138ff565b611979565b005b61054161199e565b60405161054e919061354a565b60405180910390f35b610571600480360381019061056c91906131eb565b6119c2565b60405161057e91906133ec565b60405180910390f35b6105a1600480360381019061059c91906131eb565b611a28565b005b6105bd60048036038101906105b89190613563565b611ba1565b005b6105d960048036038101906105d491906131eb565b611bc3565b6040516105ea95949392919061397f565b60405180910390f35b61060d600480360381019061060891906139d7565b611c87565b60405161061a919061319f565b60405180910390f35b61063d600480360381019061063891906131eb565b611d15565b60405161064f96959493929190613a15565b60405180910390f35b5f61066282611e49565b9050919050565b6009602052805f5260405f205f91509050805f015f9054906101000a900473ffffffffffffffffffffffffffffffffffffffff1690806001015f9054906101000a900473ffffffffffffffffffffffffffffffffffffffff1690806002015490806003015490806004015f9054906101000a900460ff16908060040160019054906101000a900460ff16905086565b60605f805461070690613aa8565b80601f016020809104026020016040519081016040528092919081815260200182805461073290613aa8565b801561077d5780601f106107545761010080835404028352916020019161077d565b820191905f5260205f20905b81548152906001019060200180831161076057829003601f168201915b5050505050905090565b5f61079182611ec2565b5061079b82611f48565b9050919050565b6107b482826107af611f81565b611f88565b5050565b5f73ffffffffffffffffffffffffffffffffffffffff168273ffffffffffffffffffffffffffffffffffffffff1603610828575f6040517f64a0ae9200000000000000000000000000000000000000000000000000000000815260040161081f919061340c565b60405180910390fd5b5f61083b8383610836611f81565b611f9a565b90508373ffffffffffffffffffffffffffffffffffffffff168173ffffffffffffffffffffffffffffffffffffffff16146108b1578382826040517f64283d7b0000000000000000000000000000000000000000000000000000000081526004016108a893929190613ad8565b60405180910390fd5b50505050565b5f60065f8381526020019081526020015f20600101549050919050565b6108dd826108b7565b6108e6816121a5565b6108f083836121b9565b50505050565b6108fe611f81565b73ffffffffffffffffffffffffffffffffffffffff168173ffffffffffffffffffffffffffffffffffffffff1614610962576040517f6697b23200000000000000000000000000000000000000000000000000000000815260040160405180910390fd5b61096c82826122a3565b505050565b5f5f1b61097d816121a5565b60085f8381526020019081526020015f206004015f9054906101000a900460ff166109dd576040517f08c379a00000000000000000000000000000000000000000000000000000000081526004016109d490613b57565b60405180910390fd5b600260038111156109f1576109f0613264565b5b60095f8481526020019081526020015f2060040160019054906101000a900460ff166003811115610a2557610a24613264565b5b14610a65576040517f08c379a0000000000000000000000000000000000000000000000000000000008152600401610a5c90613bbf565b60405180910390fd5b5f610a6f836113b4565b90505f60095f8581526020019081526020015f206001015f9054906101000a900473ffffffffffffffffffffffffffffffffffffffff169050610ab382828661238d565b4260085f8681526020019081526020015f20600301819055508073ffffffffffffffffffffffffffffffffffffffff168273ffffffffffffffffffffffffffffffffffffffff16857fb410cd83e3fb230c4750196dd72065f00a724dedbe7f941c731043f48a62493c60405160405180910390a460095f8581526020019081526020015f205f5f82015f6101000a81549073ffffffffffffffffffffffffffffffffffffffff0219169055600182015f6101000a81549073ffffffffffffffffffffffffffffffffffffffff0219169055600282015f9055600382015f9055600482015f6101000a81549060ff02191690556004820160016101000a81549060ff0219169055505050505050565b8160085f8281526020019081526020015f206004015f9054906101000a900460ff16610c22576040517f08c379a0000000000000000000000000000000000000000000000000000000008152600401610c1990613b57565b60405180910390fd5b3373ffffffffffffffffffffffffffffffffffffffff16610c42826113b4565b73ffffffffffffffffffffffffffffffffffffffff1614610c98576040517f08c379a0000000000000000000000000000000000000000000000000000000008152600401610c8f90613c27565b60405180910390fd5b5f73ffffffffffffffffffffffffffffffffffffffff168273ffffffffffffffffffffffffffffffffffffffff1603610d06576040517f08c379a0000000000000000000000000000000000000000000000000000000008152600401610cfd90613c8f565b60405180910390fd5b3373ffffffffffffffffffffffffffffffffffffffff168273ffffffffffffffffffffffffffffffffffffffff1603610d74576040517f08c379a0000000000000000000000000000000000000000000000000000000008152600401610d6b90613cf7565b60405180910390fd5b60016003811115610d8857610d87613264565b5b60095f8581526020019081526020015f2060040160019054906101000a900460ff166003811115610dbc57610dbb613264565b5b14158015610e10575060026003811115610dd957610dd8613264565b5b60095f8581526020019081526020015f2060040160019054906101000a900460ff166003811115610e0d57610e0c613264565b5b14155b610e4f576040517f08c379a0000000000000000000000000000000000000000000000000000000008152600401610e4690613d5f565b60405180910390fd5b6040518060c001604052803373ffffffffffffffffffffffffffffffffffffffff1681526020018373ffffffffffffffffffffffffffffffffffffffff1681526020018481526020015f81526020015f6002811115610eb157610eb0613264565b5b815260200160016003811115610eca57610ec9613264565b5b81525060095f8581526020019081526020015f205f820151815f015f6101000a81548173ffffffffffffffffffffffffffffffffffffffff021916908373ffffffffffffffffffffffffffffffffffffffff1602179055506020820151816001015f6101000a81548173ffffffffffffffffffffffffffffffffffffffff021916908373ffffffffffffffffffffffffffffffffffffffff16021790555060408201518160020155606082015181600301556080820151816004015f6101000a81548160ff02191690836002811115610fa657610fa5613264565b5b021790555060a08201518160040160016101000a81548160ff02191690836003811115610fd657610fd5613264565b5b02179055509050508173ffffffffffffffffffffffffffffffffffffffff163373ffffffffffffffffffffffffffffffffffffffff16847fad86e5395107a44c23ae10207c8807efe6cd1bfc2980d8c2bcab8f3a24daccd160405160405180910390a4505050565b61105883838360405180602001604052805f815250611979565b505050565b5f5f1b611069816121a5565b5f73ffffffffffffffffffffffffffffffffffffffff168473ffffffffffffffffffffffffffffffffffffffff16036110d7576040517f08c379a00000000000000000000000000000000000000000000000000000000081526004016110ce90613dc7565b60405180910390fd5b5f600754905060075f8154809291906110ef90613e12565b91905055506110fe85826124f5565b6040518060a001604052808281526020018581526020018481526020014281526020016001151581525060085f8381526020019081526020015f205f820151815f015560208201518160010190816111569190613ff9565b5060408201518160020155606082015181600301556080820151816004015f6101000a81548160ff0219169083151502179055509050508473ffffffffffffffffffffffffffffffffffffffff16817f09f87bd638cbe9814396205461896d192bb615baa655b37f43ef8414a75b7fd586866040516111d69291906140c8565b60405180910390a35050505050565b7f21702c8af46127c7fa207f89d0b0a8441bb32959a0ac7df790e9ab1a25c9892661120f816121a5565b60085f8381526020019081526020015f206004015f9054906101000a900460ff1661126f576040517f08c379a000000000000000000000000000000000000000000000000000000000815260040161126690613b57565b60405180910390fd5b6001600381111561128357611282613264565b5b60095f8481526020019081526020015f2060040160019054906101000a900460ff1660038111156112b7576112b6613264565b5b148061130757506003808111156112d1576112d0613264565b5b60095f8481526020019081526020015f2060040160019054906101000a900460ff16600381111561130557611304613264565b5b145b611346576040517f08c379a000000000000000000000000000000000000000000000000000000000815260040161133d90614140565b60405180910390fd5b600360095f8481526020019081526020015f2060040160016101000a81548160ff0219169083600381111561137e5761137d613264565b5b0217905550817f50d90763b8b8064d3b32f926fe868328ef16f06f88911395d94ee4d08b9fa87060405160405180910390a25050565b5f6113be82611ec2565b9050919050565b5f5f73ffffffffffffffffffffffffffffffffffffffff168273ffffffffffffffffffffffffffffffffffffffff1603611436575f6040517f89c62b6400000000000000000000000000000000000000000000000000000000815260040161142d919061340c565b60405180910390fd5b60035f8373ffffffffffffffffffffffffffffffffffffffff1673ffffffffffffffffffffffffffffffffffffffff1681526020019081526020015f20549050919050565b7f21702c8af46127c7fa207f89d0b0a8441bb32959a0ac7df790e9ab1a25c989266114a5816121a5565b60085f8481526020019081526020015f206004015f9054906101000a900460ff16611505576040517f08c379a00000000000000000000000000000000000000000000000000000000081526004016114fc90613b57565b60405180910390fd5b6001600381111561151957611518613264565b5b60095f8581526020019081526020015f2060040160019054906101000a900460ff16600381111561154d5761154c613264565b5b1461158d576040517f08c379a0000000000000000000000000000000000000000000000000000000008152600401611584906141a8565b60405180910390fd5b60648211156115d1576040517f08c379a00000000000000000000000000000000000000000000000000000000081526004016115c890614210565b60405180910390fd5b5f5f601e84116115e7575f915060029050611606565b604684116115fc576001915060019050611605565b60029150600390505b5b8360095f8781526020019081526020015f20600301819055508160095f8781526020019081526020015f206004015f6101000a81548160ff0219169083600281111561165557611654613264565b5b02179055508060095f8781526020019081526020015f2060040160016101000a81548160ff0219169083600381111561169157611690613264565b5b0217905550847f7eb9c87bee3fa9258fad1bc8b3d5c91c22c2a3c2bd986b0aaa1d53e468daa0c18584846040516116ca9392919061422e565b60405180910390a25050505050565b5f60065f8481526020019081526020015f205f015f8373ffffffffffffffffffffffffffffffffffffffff1673ffffffffffffffffffffffffffffffffffffffff1681526020019081526020015f205f9054906101000a900460ff16905092915050565b60606001805461174c90613aa8565b80601f016020809104026020016040519081016040528092919081815260200182805461177890613aa8565b80156117c35780601f1061179a576101008083540402835291602001916117c3565b820191905f5260205f20905b8154815290600101906020018083116117a657829003601f168201915b5050505050905090565b5f5f5f5f5f5f5f60095f8981526020019081526020015f206040518060c00160405290815f82015f9054906101000a900473ffffffffffffffffffffffffffffffffffffffff1673ffffffffffffffffffffffffffffffffffffffff1673ffffffffffffffffffffffffffffffffffffffff168152602001600182015f9054906101000a900473ffffffffffffffffffffffffffffffffffffffff1673ffffffffffffffffffffffffffffffffffffffff1673ffffffffffffffffffffffffffffffffffffffff1681526020016002820154815260200160038201548152602001600482015f9054906101000a900460ff1660028111156118d1576118d0613264565b5b60028111156118e3576118e2613264565b5b81526020016004820160019054906101000a900460ff16600381111561190c5761190b613264565b5b600381111561191e5761191d613264565b5b815250509050805f015181602001518260400151836060015184608001518560a001519650965096509650965096505091939550919395565b5f5f1b81565b61196f611968611f81565b8383612512565b5050565b60075481565b6119848484846107b8565b61199861198f611f81565b858585856126eb565b50505050565b7f21702c8af46127c7fa207f89d0b0a8441bb32959a0ac7df790e9ab1a25c9892681565b60606119cd82611ec2565b505f6119d7612897565b90505f8151116119f55760405180602001604052805f815250611a20565b806119ff846128ad565b604051602001611a1092919061429d565b6040516020818303038152906040525b915050919050565b5f5f1b611a34816121a5565b60085f8381526020019081526020015f206004015f9054906101000a900460ff16611a94576040517f08c379a0000000000000000000000000000000000000000000000000000000008152600401611a8b90613b57565b60405180910390fd5b60016003811115611aa857611aa7613264565b5b60095f8481526020019081526020015f2060040160019054906101000a900460ff166003811115611adc57611adb613264565b5b14611b1c576040517f08c379a0000000000000000000000000000000000000000000000000000000008152600401611b139061430a565b60405180910390fd5b600260095f8481526020019081526020015f2060040160016101000a81548160ff02191690836003811115611b5457611b53613264565b5b02179055503373ffffffffffffffffffffffffffffffffffffffff16827fa4269914b1afdc8f7e4c3aa6794f0de6e37f00884fb97ea9288a1d68ba7de67b60405160405180910390a35050565b611baa826108b7565b611bb3816121a5565b611bbd83836122a3565b50505050565b6008602052805f5260405f205f91509050805f015490806001018054611be890613aa8565b80601f0160208091040260200160405190810160405280929190818152602001828054611c1490613aa8565b8015611c5f5780601f10611c3657610100808354040283529160200191611c5f565b820191905f5260205f20905b815481529060010190602001808311611c4257829003601f168201915b505050505090806002015490806003015490806004015f9054906101000a900460ff16905085565b5f60055f8473ffffffffffffffffffffffffffffffffffffffff1673ffffffffffffffffffffffffffffffffffffffff1681526020019081526020015f205f8373ffffffffffffffffffffffffffffffffffffffff1673ffffffffffffffffffffffffffffffffffffffff1681526020019081526020015f205f9054906101000a900460ff16905092915050565b5f5f60605f5f5f5f60085f8981526020019081526020015f206040518060a00160405290815f8201548152602001600182018054611d5290613aa8565b80601f0160208091040260200160405190810160405280929190818152602001828054611d7e90613aa8565b8015611dc95780601f10611da057610100808354040283529160200191611dc9565b820191905f5260205f20905b815481529060010190602001808311611dac57829003601f168201915b505050505081526020016002820154815260200160038201548152602001600482015f9054906101000a900460ff1615151515815250509050805f01518160800151611e15575f611e1f565b611e1e896113b4565b5b82602001518360400151846060015185608001519650965096509650965096505091939550919395565b5f7f7965db0b000000000000000000000000000000000000000000000000000000007bffffffffffffffffffffffffffffffffffffffffffffffffffffffff1916827bffffffffffffffffffffffffffffffffffffffffffffffffffffffff19161480611ebb5750611eba82612977565b5b9050919050565b5f5f611ecd83612a58565b90505f73ffffffffffffffffffffffffffffffffffffffff168173ffffffffffffffffffffffffffffffffffffffff1603611f3f57826040517f7e273289000000000000000000000000000000000000000000000000000000008152600401611f3691906137a2565b60405180910390fd5b80915050919050565b5f60045f8381526020019081526020015f205f9054906101000a900473ffffffffffffffffffffffffffffffffffffffff169050919050565b5f33905090565b611f958383836001612a91565b505050565b5f5f611fa584612a58565b90505f73ffffffffffffffffffffffffffffffffffffffff168373ffffffffffffffffffffffffffffffffffffffff1614611fe657611fe5818486612c50565b5b5f73ffffffffffffffffffffffffffffffffffffffff168173ffffffffffffffffffffffffffffffffffffffff1614612071576120255f855f5f612a91565b600160035f8373ffffffffffffffffffffffffffffffffffffffff1673ffffffffffffffffffffffffffffffffffffffff1681526020019081526020015f205f82825403925050819055505b5f73ffffffffffffffffffffffffffffffffffffffff168573ffffffffffffffffffffffffffffffffffffffff16146120f057600160035f8773ffffffffffffffffffffffffffffffffffffffff1673ffffffffffffffffffffffffffffffffffffffff1681526020019081526020015f205f82825401925050819055505b8460025f8681526020019081526020015f205f6101000a81548173ffffffffffffffffffffffffffffffffffffffff021916908373ffffffffffffffffffffffffffffffffffffffff160217905550838573ffffffffffffffffffffffffffffffffffffffff168273ffffffffffffffffffffffffffffffffffffffff167fddf252ad1be2c89b69c2b068fc378daa952ba7f163c4a11628f55a4df523b3ef60405160405180910390a4809150509392505050565b6121b6816121b1611f81565b612d13565b50565b5f6121c483836116d9565b61229957600160065f8581526020019081526020015f205f015f8473ffffffffffffffffffffffffffffffffffffffff1673ffffffffffffffffffffffffffffffffffffffff1681526020019081526020015f205f6101000a81548160ff021916908315150217905550612236611f81565b73ffffffffffffffffffffffffffffffffffffffff168273ffffffffffffffffffffffffffffffffffffffff16847f2f8788117e7eff1d82e926ec794901d17c78024a50270940304540a733656f0d60405160405180910390a46001905061229d565b5f90505b92915050565b5f6122ae83836116d9565b15612383575f60065f8581526020019081526020015f205f015f8473ffffffffffffffffffffffffffffffffffffffff1673ffffffffffffffffffffffffffffffffffffffff1681526020019081526020015f205f6101000a81548160ff021916908315150217905550612320611f81565b73ffffffffffffffffffffffffffffffffffffffff168273ffffffffffffffffffffffffffffffffffffffff16847ff6391f5c32d9c69d2a47ea670b442974b53935d1edc7fd64eb21e047a839171b60405160405180910390a460019050612387565b5f90505b92915050565b5f73ffffffffffffffffffffffffffffffffffffffff168273ffffffffffffffffffffffffffffffffffffffff16036123fd575f6040517f64a0ae920000000000000000000000000000000000000000000000000000000081526004016123f4919061340c565b60405180910390fd5b5f61240983835f611f9a565b90505f73ffffffffffffffffffffffffffffffffffffffff168173ffffffffffffffffffffffffffffffffffffffff160361247b57816040517f7e27328900000000000000000000000000000000000000000000000000000000815260040161247291906137a2565b60405180910390fd5b8373ffffffffffffffffffffffffffffffffffffffff168173ffffffffffffffffffffffffffffffffffffffff16146124ef578382826040517f64283d7b0000000000000000000000000000000000000000000000000000000081526004016124e693929190613ad8565b60405180910390fd5b50505050565b61250e828260405180602001604052805f815250612d64565b5050565b5f73ffffffffffffffffffffffffffffffffffffffff168373ffffffffffffffffffffffffffffffffffffffff1603612582575f6040517fa9fbf51f000000000000000000000000000000000000000000000000000000008152600401612579919061340c565b60405180910390fd5b5f73ffffffffffffffffffffffffffffffffffffffff168273ffffffffffffffffffffffffffffffffffffffff16036125f257816040517f5b08ba180000000000000000000000000000000000000000000000000000000081526004016125e9919061340c565b60405180910390fd5b8060055f8573ffffffffffffffffffffffffffffffffffffffff1673ffffffffffffffffffffffffffffffffffffffff1681526020019081526020015f205f8473ffffffffffffffffffffffffffffffffffffffff1673ffffffffffffffffffffffffffffffffffffffff1681526020019081526020015f205f6101000a81548160ff0219169083151502179055508173ffffffffffffffffffffffffffffffffffffffff168373ffffffffffffffffffffffffffffffffffffffff167f17307eab39ab6107e8899845ad3d59bd9653f200f220920489ca2b5937696c31836040516126de919061319f565b60405180910390a3505050565b5f8373ffffffffffffffffffffffffffffffffffffffff163b1115612890578273ffffffffffffffffffffffffffffffffffffffff1663150b7a02868685856040518563ffffffff1660e01b8152600401612749949392919061437a565b6020604051808303815f875af192505050801561278457506040513d601f19601f8201168201806040525081019061278191906143d8565b60015b612805573d805f81146127b2576040519150601f19603f3d011682016040523d82523d5f602084013e6127b7565b606091505b505f8151036127fd57836040517f64a0ae920000000000000000000000000000000000000000000000000000000081526004016127f4919061340c565b60405180910390fd5b805160208201fd5b63150b7a0260e01b7bffffffffffffffffffffffffffffffffffffffffffffffffffffffff1916817bffffffffffffffffffffffffffffffffffffffffffffffffffffffff19161461288e57836040517f64a0ae92000000000000000000000000000000000000000000000000000000008152600401612885919061340c565b60405180910390fd5b505b5050505050565b606060405180602001604052805f815250905090565b60605f60016128bb84612d87565b0190505f8167ffffffffffffffff8111156128d9576128d86135e7565b5b6040519080825280601f01601f19166020018201604052801561290b5781602001600182028036833780820191505090505b5090505f82602083010190505b60011561296c578080600190039150507f3031323334353637383961626364656600000000000000000000000000000000600a86061a8153600a858161296157612960614403565b5b0494505f8503612918575b819350505050919050565b5f7f80ac58cd000000000000000000000000000000000000000000000000000000007bffffffffffffffffffffffffffffffffffffffffffffffffffffffff1916827bffffffffffffffffffffffffffffffffffffffffffffffffffffffff19161480612a4157507f5b5e139f000000000000000000000000000000000000000000000000000000007bffffffffffffffffffffffffffffffffffffffffffffffffffffffff1916827bffffffffffffffffffffffffffffffffffffffffffffffffffffffff1916145b80612a515750612a5082612ed8565b5b9050919050565b5f60025f8381526020019081526020015f205f9054906101000a900473ffffffffffffffffffffffffffffffffffffffff169050919050565b8080612ac957505f73ffffffffffffffffffffffffffffffffffffffff168273ffffffffffffffffffffffffffffffffffffffff1614155b15612bfb575f612ad884611ec2565b90505f73ffffffffffffffffffffffffffffffffffffffff168373ffffffffffffffffffffffffffffffffffffffff1614158015612b4257508273ffffffffffffffffffffffffffffffffffffffff168173ffffffffffffffffffffffffffffffffffffffff1614155b8015612b555750612b538184611c87565b155b15612b9757826040517fa9fbf51f000000000000000000000000000000000000000000000000000000008152600401612b8e919061340c565b60405180910390fd5b8115612bf957838573ffffffffffffffffffffffffffffffffffffffff168273ffffffffffffffffffffffffffffffffffffffff167f8c5be1e5ebec7d5bd14f71427d1e84f3dd0314c0f7b2291e5b200ac8c7c3b92560405160405180910390a45b505b8360045f8581526020019081526020015f205f6101000a81548173ffffffffffffffffffffffffffffffffffffffff021916908373ffffffffffffffffffffffffffffffffffffffff16021790555050505050565b612c5b838383612f41565b612d0e575f73ffffffffffffffffffffffffffffffffffffffff168373ffffffffffffffffffffffffffffffffffffffff1603612ccf57806040517f7e273289000000000000000000000000000000000000000000000000000000008152600401612cc691906137a2565b60405180910390fd5b81816040517f177e802f000000000000000000000000000000000000000000000000000000008152600401612d05929190614430565b60405180910390fd5b505050565b612d1d82826116d9565b612d605780826040517fe2517d3f000000000000000000000000000000000000000000000000000000008152600401612d57929190614457565b60405180910390fd5b5050565b612d6e8383613001565b612d82612d79611f81565b5f8585856126eb565b505050565b5f5f5f90507a184f03e93ff9f4daa797ed6e38ed64bf6a1f0100000000000000008310612de3577a184f03e93ff9f4daa797ed6e38ed64bf6a1f0100000000000000008381612dd957612dd8614403565b5b0492506040810190505b6d04ee2d6d415b85acef81000000008310612e20576d04ee2d6d415b85acef81000000008381612e1657612e15614403565b5b0492506020810190505b662386f26fc100008310612e4f57662386f26fc100008381612e4557612e44614403565b5b0492506010810190505b6305f5e1008310612e78576305f5e1008381612e6e57612e6d614403565b5b0492506008810190505b6127108310612e9d576127108381612e9357612e92614403565b5b0492506004810190505b60648310612ec05760648381612eb657612eb5614403565b5b0492506002810190505b600a8310612ecf576001810190505b80915050919050565b5f7f01ffc9a7000000000000000000000000000000000000000000000000000000007bffffffffffffffffffffffffffffffffffffffffffffffffffffffff1916827bffffffffffffffffffffffffffffffffffffffffffffffffffffffff1916149050919050565b5f5f73ffffffffffffffffffffffffffffffffffffffff168373ffffffffffffffffffffffffffffffffffffffff1614158015612ff857508273ffffffffffffffffffffffffffffffffffffffff168473ffffffffffffffffffffffffffffffffffffffff161480612fb95750612fb88484611c87565b5b80612ff757508273ffffffffffffffffffffffffffffffffffffffff16612fdf83611f48565b73ffffffffffffffffffffffffffffffffffffffff16145b5b90509392505050565b5f73ffffffffffffffffffffffffffffffffffffffff168273ffffffffffffffffffffffffffffffffffffffff1603613071575f6040517f64a0ae92000000000000000000000000000000000000000000000000000000008152600401613068919061340c565b60405180910390fd5b5f61307d83835f611f9a565b90505f73ffffffffffffffffffffffffffffffffffffffff168173ffffffffffffffffffffffffffffffffffffffff16146130ef575f6040517f73c6ac6e0000000000000000000000000000000000000000000000000000000081526004016130e6919061340c565b60405180910390fd5b505050565b5f604051905090565b5f5ffd5b5f5ffd5b5f7fffffffff0000000000000000000000000000000000000000000000000000000082169050919050565b61313981613105565b8114613143575f5ffd5b50565b5f8135905061315481613130565b92915050565b5f6020828403121561316f5761316e6130fd565b5b5f61317c84828501613146565b91505092915050565b5f8115159050919050565b61319981613185565b82525050565b5f6020820190506131b25f830184613190565b92915050565b5f819050919050565b6131ca816131b8565b81146131d4575f5ffd5b50565b5f813590506131e5816131c1565b92915050565b5f60208284031215613200576131ff6130fd565b5b5f61320d848285016131d7565b91505092915050565b5f73ffffffffffffffffffffffffffffffffffffffff82169050919050565b5f61323f82613216565b9050919050565b61324f81613235565b82525050565b61325e816131b8565b82525050565b7f4e487b71000000000000000000000000000000000000000000000000000000005f52602160045260245ffd5b600381106132a2576132a1613264565b5b50565b5f8190506132b282613291565b919050565b5f6132c1826132a5565b9050919050565b6132d1816132b7565b82525050565b600481106132e8576132e7613264565b5b50565b5f8190506132f8826132d7565b919050565b5f613307826132eb565b9050919050565b613317816132fd565b82525050565b5f60c0820190506133305f830189613246565b61333d6020830188613246565b61334a6040830187613255565b6133576060830186613255565b61336460808301856132c8565b61337160a083018461330e565b979650505050505050565b5f81519050919050565b5f82825260208201905092915050565b8281835e5f83830152505050565b5f601f19601f8301169050919050565b5f6133be8261337c565b6133c88185613386565b93506133d8818560208601613396565b6133e1816133a4565b840191505092915050565b5f6020820190508181035f83015261340481846133b4565b905092915050565b5f60208201905061341f5f830184613246565b92915050565b61342e81613235565b8114613438575f5ffd5b50565b5f8135905061344981613425565b92915050565b5f5f60408385031215613465576134646130fd565b5b5f6134728582860161343b565b9250506020613483858286016131d7565b9150509250929050565b5f5f5f606084860312156134a4576134a36130fd565b5b5f6134b18682870161343b565b93505060206134c28682870161343b565b92505060406134d3868287016131d7565b9150509250925092565b5f819050919050565b6134ef816134dd565b81146134f9575f5ffd5b50565b5f8135905061350a816134e6565b92915050565b5f60208284031215613525576135246130fd565b5b5f613532848285016134fc565b91505092915050565b613544816134dd565b82525050565b5f60208201905061355d5f83018461353b565b92915050565b5f5f60408385031215613579576135786130fd565b5b5f613586858286016134fc565b92505060206135978582860161343b565b9150509250929050565b5f5f604083850312156135b7576135b66130fd565b5b5f6135c4858286016131d7565b92505060206135d58582860161343b565b9150509250929050565b5f5ffd5b5f5ffd5b7f4e487b71000000000000000000000000000000000000000000000000000000005f52604160045260245ffd5b61361d826133a4565b810181811067ffffffffffffffff8211171561363c5761363b6135e7565b5b80604052505050565b5f61364e6130f4565b905061365a8282613614565b919050565b5f67ffffffffffffffff821115613679576136786135e7565b5b613682826133a4565b9050602081019050919050565b828183375f83830152505050565b5f6136af6136aa8461365f565b613645565b9050828152602081018484840111156136cb576136ca6135e3565b5b6136d684828561368f565b509392505050565b5f82601f8301126136f2576136f16135df565b5b813561370284826020860161369d565b91505092915050565b5f5f5f60608486031215613722576137216130fd565b5b5f61372f8682870161343b565b935050602084013567ffffffffffffffff8111156137505761374f613101565b5b61375c868287016136de565b925050604061376d868287016131d7565b9150509250925092565b5f6020828403121561378c5761378b6130fd565b5b5f6137998482850161343b565b91505092915050565b5f6020820190506137b55f830184613255565b92915050565b5f5f604083850312156137d1576137d06130fd565b5b5f6137de858286016131d7565b92505060206137ef858286016131d7565b9150509250929050565b61380281613185565b811461380c575f5ffd5b50565b5f8135905061381d816137f9565b92915050565b5f5f60408385031215613839576138386130fd565b5b5f6138468582860161343b565b92505060206138578582860161380f565b9150509250929050565b5f67ffffffffffffffff82111561387b5761387a6135e7565b5b613884826133a4565b9050602081019050919050565b5f6138a361389e84613861565b613645565b9050828152602081018484840111156138bf576138be6135e3565b5b6138ca84828561368f565b509392505050565b5f82601f8301126138e6576138e56135df565b5b81356138f6848260208601613891565b91505092915050565b5f5f5f5f60808587031215613917576139166130fd565b5b5f6139248782880161343b565b94505060206139358782880161343b565b9350506040613946878288016131d7565b925050606085013567ffffffffffffffff81111561396757613966613101565b5b613973878288016138d2565b91505092959194509250565b5f60a0820190506139925f830188613255565b81810360208301526139a481876133b4565b90506139b36040830186613255565b6139c06060830185613255565b6139cd6080830184613190565b9695505050505050565b5f5f604083850312156139ed576139ec6130fd565b5b5f6139fa8582860161343b565b9250506020613a0b8582860161343b565b9150509250929050565b5f60c082019050613a285f830189613255565b613a356020830188613246565b8181036040830152613a4781876133b4565b9050613a566060830186613255565b613a636080830185613255565b613a7060a0830184613190565b979650505050505050565b7f4e487b71000000000000000000000000000000000000000000000000000000005f52602260045260245ffd5b5f6002820490506001821680613abf57607f821691505b602082108103613ad257613ad1613a7b565b5b50919050565b5f606082019050613aeb5f830186613246565b613af86020830185613255565b613b056040830184613246565b949350505050565b7f4c616e64206e6f7420666f756e640000000000000000000000000000000000005f82015250565b5f613b41600e83613386565b9150613b4c82613b0d565b602082019050919050565b5f6020820190508181035f830152613b6e81613b35565b9050919050565b7f5472616e73666572206e6f7420617070726f76656400000000000000000000005f82015250565b5f613ba9601583613386565b9150613bb482613b75565b602082019050919050565b5f6020820190508181035f830152613bd681613b9d565b9050919050565b7f4e6f74206c616e64206f776e65720000000000000000000000000000000000005f82015250565b5f613c11600e83613386565b9150613c1c82613bdd565b602082019050919050565b5f6020820190508181035f830152613c3e81613c05565b9050919050565b7f496e76616c696420726563697069656e740000000000000000000000000000005f82015250565b5f613c79601183613386565b9150613c8482613c45565b602082019050919050565b5f6020820190508181035f830152613ca681613c6d565b9050919050565b7f43616e6e6f74207472616e7366657220746f2073656c660000000000000000005f82015250565b5f613ce1601783613386565b9150613cec82613cad565b602082019050919050565b5f6020820190508181035f830152613d0e81613cd5565b9050919050565b7f5472616e7366657220616c7265616479206163746976650000000000000000005f82015250565b5f613d49601783613386565b9150613d5482613d15565b602082019050919050565b5f6020820190508181035f830152613d7681613d3d565b9050919050565b7f496e76616c6964206f776e6572000000000000000000000000000000000000005f82015250565b5f613db1600d83613386565b9150613dbc82613d7d565b602082019050919050565b5f6020820190508181035f830152613dde81613da5565b9050919050565b7f4e487b71000000000000000000000000000000000000000000000000000000005f52601160045260245ffd5b5f613e1c826131b8565b91507fffffffffffffffffffffffffffffffffffffffffffffffffffffffffffffffff8203613e4e57613e4d613de5565b5b600182019050919050565b5f819050815f5260205f209050919050565b5f6020601f8301049050919050565b5f82821b905092915050565b5f60088302613eb57fffffffffffffffffffffffffffffffffffffffffffffffffffffffffffffffff82613e7a565b613ebf8683613e7a565b95508019841693508086168417925050509392505050565b5f819050919050565b5f613efa613ef5613ef0846131b8565b613ed7565b6131b8565b9050919050565b5f819050919050565b613f1383613ee0565b613f27613f1f82613f01565b848454613e86565b825550505050565b5f5f905090565b613f3e613f2f565b613f49818484613f0a565b505050565b5b81811015613f6c57613f615f82613f36565b600181019050613f4f565b5050565b601f821115613fb157613f8281613e59565b613f8b84613e6b565b81016020851015613f9a578190505b613fae613fa685613e6b565b830182613f4e565b50505b505050565b5f82821c905092915050565b5f613fd15f1984600802613fb6565b1980831691505092915050565b5f613fe98383613fc2565b9150826002028217905092915050565b6140028261337c565b67ffffffffffffffff81111561401b5761401a6135e7565b5b6140258254613aa8565b614030828285613f70565b5f60209050601f831160018114614061575f841561404f578287015190505b6140598582613fde565b8655506140c0565b601f19841661406f86613e59565b5f5b8281101561409657848901518255600182019150602085019450602081019050614071565b868310156140b357848901516140af601f891682613fc2565b8355505b6001600288020188555050505b505050505050565b5f6040820190508181035f8301526140e081856133b4565b90506140ef6020830184613255565b9392505050565b7f5472616e73666572206e6f742076616c696400000000000000000000000000005f82015250565b5f61412a601283613386565b9150614135826140f6565b602082019050919050565b5f6020820190508181035f8301526141578161411e565b9050919050565b7f4e6f2070656e64696e67207472616e73666572000000000000000000000000005f82015250565b5f614192601383613386565b915061419d8261415e565b602082019050919050565b5f6020820190508181035f8301526141bf81614186565b9050919050565b7f5269736b2073636f7265206d75737420626520302d31303000000000000000005f82015250565b5f6141fa601883613386565b9150614205826141c6565b602082019050919050565b5f6020820190508181035f830152614227816141ee565b9050919050565b5f6060820190506142415f830186613255565b61424e60208301856132c8565b61425b604083018461330e565b949350505050565b5f81905092915050565b5f6142778261337c565b6142818185614263565b9350614291818560208601613396565b80840191505092915050565b5f6142a8828561426d565b91506142b4828461426d565b91508190509392505050565b7f5472616e73666572206e6f742070656e64696e670000000000000000000000005f82015250565b5f6142f4601483613386565b91506142ff826142c0565b602082019050919050565b5f6020820190508181035f830152614321816142e8565b9050919050565b5f81519050919050565b5f82825260208201905092915050565b5f61434c82614328565b6143568185614332565b9350614366818560208601613396565b61436f816133a4565b840191505092915050565b5f60808201905061438d5f830187613246565b61439a6020830186613246565b6143a76040830185613255565b81810360608301526143b98184614342565b905095945050505050565b5f815190506143d281613130565b92915050565b5f602082840312156143ed576143ec6130fd565b5b5f6143fa848285016143c4565b91505092915050565b7f4e487b71000000000000000000000000000000000000000000000000000000005f52601260045260245ffd5b5f6040820190506144435f830185613246565b6144506020830184613255565b9392505050565b5f60408201905061446a5f830185613246565b614477602083018461353b565b939250505056fea26469706673582212200117cc83eb5c5fd609579fabbc8194e9607403082af334632cf479cb3b1049fa64736f6c634300081c0033",
  "linkReferences": {},
  "deployedLinkReferences": {},
  "immutableReferences": {},
  "inputSourceName": "project/contracts/TerraChainSimple.sol",
  "buildInfoId": "solc-0_8_28-0793dbdf323e7148339fcb8845aeff7890d180b0"
}